:020000040800F2
:1000000000500020B5100008310E0008370E00081F
:100010003D0E0008430E0008490E000800000000D5
:100020000000000000000000000000004F0E00086B
:100030005B0E000800000000670E0008730E000849
:10004000FD100008FD100008FD100008FD1000085C
:10005000FD100008FD100008FD1000087F0E0008CC
:10006000FD100008FD100008FD1000088D0E0008AE
:10007000FD100008FD100008FD100008FD1000082C
:10008000FD100008FD100008A10E0008FD1000087A
:10009000FD100008FD100008FD100008FD1000080C
:1000A000FD100008FD100008FD100008FD100008FC
:1000B000B50E0008C90E0008FD100008FD1000086C
:1000C000FD100008FD100008FD100008FD100008DC
:1000D000FD100008FD100008FD100008FD100008CC
:1000E000DD0E0008FD100008FD10000800000000F3
:1000F0000000000000000000000000000000000000
:0C01000000000000000000005FF808F1A3
:10010C0010B5054C237833B9044B13B10448AFF345
:10011C0000800123237010BD10000020000000009F
:10012C009836000808B5034B1BB103490348AFF3DD
:10013C00008008BD00000000140000209836000864
:10014C0080B582B000AF0346FB71FB790B2B00F23C
:10015C00238201A252F823F095010008EB0100085C
:10016C004102000897020008ED0200084303000852
:10017C0099030008EF030008450400089B040008DD
:10018C00F90400084F05000801224FF40061D5481E
:10019C0002F088F901224FF48071D24802F082F902
:1001AC0001224FF40041D04802F07CF901224FF4B7
:1001BC008041CD4802F076F901224FF40051CA4833
:1001CC0002F070F901224FF48051C74802F06AF92D
:1001DC0000224FF48051C34802F064F9DCE10022A4
:1001EC004FF40061BF4802F05DF900224FF48071BA
:1001FC00BC4802F057F900224FF40041BA4802F013
:10020C0051F900224FF48041B74802F04BF901221A
:10021C004FF40051B44802F045F901224FF48051DB
:10022C00B14802F03FF900224FF48051AD4802F082
:10023C0039F9B1E101224FF40061AA4802F032F918
:10024C0001224FF48071A74802F02CF900224FF4E0
:10025C000041A54802F026F901224FF48041A24842
:10026C0002F020F901224FF400519F4802F01AF9D4
:10027C0000224FF480519C4802F014F901224FF4F3
:10028C008051984802F00EF986E101224FF400618A
:10029C00944802F007F901224FF48071914802F062
:1002AC0001F901224FF400418F4802F0FBF80122C2
:1002BC004FF480418C4802F0F5F800224FF40051C5
:1002CC00894802F0EFF800224FF48051864802F082
:1002DC00E9F801224FF48051824802F0E3F85BE127
:1002EC0000224FF400617F4802F0DCF801224FF449
:1002FC0080717C4802F0D6F801224FF400417A4814
:10030C0002F0D0F800224FF48041774802F0CAF88E
:10031C0000224FF40051744802F0C4F801224FF44B
:10032C008051714802F0BEF801224FF480516D48A3
:10033C0002F0B8F830E101224FF40061694802F094
:10034C00B1F800224FF48071664802F0ABF801223C
:10035C004FF40041644802F0A5F801224FF48041AB
:10036C00614802F09FF800224FF400515E4802F001
:10037C0099F801224FF480515B4802F093F8012266
:10038C004FF48051574802F08DF805E101224FF4EB
:10039C000061544802F086F800224FF480715148F5
:1003AC0002F080F801224FF400414F4802F07AF835
:1003BC0001224FF480414C4802F074F801224FF4B2
:1003CC000051494802F06EF801224FF48051464822
:1003DC0002F068F801224FF48051424802F062F8B2
:1003EC00DAE001224FF400613E4802F05BF8012292
:1003FC004FF480713B4802F055F801224FF4004154
:10040C00394802F04FF800224FF48041364802F090
:10041C0049F800224FF40051334802F043F800220F
:10042C004FF48051304802F03DF800224FF48051D7
:10043C002C4802F037F8AFE001224FF40061294854
:10044C0002F030F801224FF48071264802F02AF8AD
:10045C0001224FF40041244802F024F801224FF409
:10046C008041214802F01EF801224FF400511E4831
:10047C0002F018F801224FF480511B4802F012F8D8
:10048C0001224FF48051174802F00CF884E001224D
:10049C004FF40061134802F005F801224FF480710B
:1004AC00104801F0FFFF01224FF400410E4801F00B
:1004BC00F9FF01224FF480410B4801F0F3FF0022B9
:1004CC004FF40051084801F0EDFF01224FF4805128
:1004DC00054801F0E7FF01224FF48051014801F07B
:1004EC00E1FF59E000080140000C014001224FF4EB
:1004FC0000612B4801F0D6FF00224FF48071284890
:10050C0001F0D0FF00224FF40041264801F0CAFF51
:10051C0000224FF48041234801F0C4FF01224FF424
:10052C000051204801F0BEFF01224FF480511D48BC
:10053C0001F0B8FF01224FF48051194801F0B2FFCD
:10054C002AE000224FF40061154801F0ABFF0022B5
:10055C004FF48071124801F0A5FF00224FF40041C6
:10056C00104801F09FFF00224FF480410D4801F02C
:10057C0099FF00224FF400510A4801F093FF00222A
:10058C004FF48051074801F08DFF00224FF4805149
:10059C00034801F087FF00BF00BF0837BD4680BD90
:1005AC0000080140000C014080B584B000AF3B1D39
:1005BC0000221A605A609A60184B194A1A60174B3D
:1005CC0000229A60154B00221A73144B00221A75E4
:1005DC00124B4FF40022DA61104B00225A600F4B81
:1005EC0001221A610D4800F00BFE0346002B01D0CE
:1005FC0000F0E0FB00237B600123BB600023FB6069
:10060C003B1D1946054801F099F80346002B01D013
:10061C0000F0D0FB00BF1037BD4680BD2C00002081
:10062C000024014080B588B000AF786007F110035A
:10063C0000221A605A609A60DA607B681B682C4A48
:10064C00934251D12B4B9B692A4A43F4007393611B
:10065C00284B9B6903F40073FB60FB68254B9B697B
:10066C00244A43F004039361224B9B6903F0040377
:10067C00BB60BB6801233B6103237B6107F1100363
:10068C0019461D4801F08AFD1C4B1D4A1A601B4B74
:10069C0000225A60194B00229A60184B0022DA6033
:1006AC00164B4FF400721A61144B4FF400625A61EE
:1006BC00124B20229A61114B0022DA610F4801F093
:1006CC007FFB0346002B01D000F074FB7B680B4AC8
:1006DC001A620A4A7B68536200220021122001F040
:1006EC002AFB122001F043FB00BF2037BD4680BD22
:1006FC000024014000100240000801405C00002072
:10070C000800024080B582B000AF0C4B5B690B4A0D
:10071C0043F001035361094B5B6903F001037B60F8
:10072C007B68002200210B2001F005FB0B2001F05F
:10073C001EFB00BF0837BD4680BD00BF0010024045
:10074C0080B588B000AF07F1100300221A605A6020
:10075C009A60DA60474B9B69464A43F010039361F9
:10076C00444B9B6903F01003FB60FB68414B9B6996
:10077C00404A43F0200393613E4B9B6903F02003F6
:10078C00BB60BB683B4B9B693A4A43F004039361E3
:10079C00384B9B6903F004037B607B68354B9B698A
:1007AC00344A43F008039361324B9B6903F008030E
:1007BC003B603B6800224FF4C0412F4801F072FEB1
:1007CC00002249F602112D4801F06CFE00224FF276
:1007DC0008312B4801F066FE4FF4C0433B61012306
:1007EC007B610023BB610223FB6107F110031946F7
:1007FC00214801F0D3FC49F602133B6101237B61D4
:10080C000023BB610223FB6107F1100319461B484F
:10081C0001F0C4FC40F602433B611A4B7B610023A0
:10082C00BB6107F110031946154801F0B7FC4FF2F4
:10083C0008333B6101237B610023BB610223FB6115
:10084C0007F1100319460E4801F0A8FC0022002104
:10085C00072001F070FA072001F089FA002200212C
:10086C00282001F068FA282001F081FA00BF203717
:10087C00BD4680BD00100240001001400008014040
:10088C00000C01400000111080B500AF00F032FCEC
:10089C0000F0F0F8FFF754FFFFF734FFFFF784FE8A
:1008AC0000F074FB00F026FB654802F019FB65486C
:1008BC0002F016FB01226449644800F079FD1C200B
:1008CC0001F063FA624B1B78012B02D0022B35D05E
:1008DC0059E05D4B1B685F4AA2FB032359095E4B31
:1008EC00A3FB0123DA0813469B0013445B00CA1ACE
:1008FC00D2B25A4B1A70544B1B68574AA2FB0323B3
:10090C00D908554BA3FB0123DA0813469B0013446B
:10091C005B00CA1AD2B2514B5A704B4B19684E4BF2
:10092C00A3FB0123DA0813469B0013445B00CA1A8D
:10093C00D2B24A4B9A7000F093F924E0474B0A224A
:10094C001A70474B1B78444AA2FB0323DB08DAB22C
:10095C00414BA3FB0213D9080B469B000B445B00D5
:10096C00D31ADAB23D4B5A703D4B1A783A4BA3FB73
:10097C000213D9080B469B000B445B00D31ADAB266
:10098C00364B9A7000BF374B1B78DBB2012B08D16A
:10099C0000F0D4F9334B00221A704FF4C87000F0F9
:1009AC000BFC314B1B78DBB2012B1BD1284B1B787A
:1009BC00022B0AD12A4B1B783C2B09D0284B1B78D5
:1009CC000533DAB2264B1A7002E0214B02221A7060
:1009DC00264B14221A704FF4C87000F0EDFB224B1A
:1009EC0000221A70224B1B78DBB2012B1BD1184B47
:1009FC001B78022B0AD11A4B1B78232B09D0184BCE
:100A0C001B78053BDAB2164B1A7002E0104B02222F
:100A1C001A70164B14221A704FF4C87000F0CCFBED
:100A2C00134B00221A70114B1B78DBB2002B7FF496
:100A3C0049AF074B01221A700C4B00221A7041E788
:100A4C00B0000020F8000020A00000202C000020A6
:100A5C00AC0000201F85EB51CDCCCCCCA4000020E9
:100A6C0000000020AA000020A8000020AB000020FD
:100A7C00A900002080B594B000AF07F1280328220C
:100A8C000021184602F0FAFD07F1140300221A6047
:100A9C005A609A60DA601A613B1D00221A605A6033
:100AAC009A60DA600123BB624FF48033FB6200234F
:100ABC003B630123BB6302237B644FF48033BB6431
:100ACC004FF4E013FB6407F12803184601F01AFDFC
:100ADC000346002B01D000F06DF90F237B6102233C
:100AEC00BB610023FB614FF480633B6200237B629C
:100AFC0007F114030221184601F086FF0346002B70
:100B0C0001D000F057F902237B604FF40043FB60E7
:100B1C003B1D184602F0DEF80346002B01D000F016
:100B2C0049F900BF5037BD4680BD000080B582B08A
:100B3C0000AF78607B681B68B3F1804F4CD1314BB0
:100B4C001B78DBB2032B2BD0032B3EDC012B02D00A
:100B5C00022B12D039E001224FF480712A4801F0A7
:100B6C00A1FC00220821284801F09CFC274B1B7893
:100B7C00DBB21846FFF7E4FA27E001224FF40071CC
:100B8C00214801F08FFC00224FF480711E4801F0C7
:100B9C0089FC1E4B5B78DBB21846FFF7D1FA14E0E8
:100BAC0001220821184801F07DFC00224FF400714D
:100BBC00154801F077FC154B9B78DBB21846FFF714
:100BCC00BFFA104B00221A7000BF0E4B1B78DBB221
:100BDC000133DAB20B4B1A707B681B680C4A9342D8
:100BEC000BD10C4B1B78DBB2002B06D0094B1B78BE
:100BFC00DBB2013BDAB2074B1A7000BF0837BD46B7
:100C0C0080BD00BFA7000020000C0140A400002004
:100C1C0000040040AB00002080B483B000AF03465A
:100C2C00FB80FB88B3F5006F02D10A4B01221A70CE
:100C3C00FB88B3F5806F02D1074B01221A70FB8839
:100C4C00022B02D1054B01221A7000BF0C37BD4696
:100C5C0080BC7047AA000020A8000020A90000203A
:100C6C0080B500AF2F4B1B78012B59D12E4B1B7825
:100C7C00053B1A462D4B1B689A4214D301220221C4
:100C8C002B4801F00FFC00224FF40051294801F0D1
:100C9C0009FC00224FF48041264801F003FC264B4E
:100CAC0001221A703CE0204B1B7805331A461F4B6F
:100CBC001B689A4214D801224FF480411D4801F060
:100CCC00F1FB00224FF400511A4801F0EBFB00221B
:100CDC000221174801F0E6FB174B01221A701FE0A6
:100CEC00154B1B78002B11D101224FF400511148E8
:100CFC0001F0D8FB002202210D4801F0D3FB0022A9
:100D0C004FF480410B4801F0CDFB09E0064B1B78FA
:100D1C001A46064B1B689A4202D1074B00221A70E6
:100D2C0000BF80BDAD00002000000020A00000200E
:100D3C000008014000100140AE00002080B500AF5B
:100D4C00184B1B78012B24D1174B0B221A70164B06
:100D5C000B225A70144B0B229A704FF4C87000F08F
:100D6C002BFA1C2001F011F8002202210F4801F08F
:100D7C0099FB00224FF480410D4801F093FB0022B7
:100D8C004FF400510A4801F08DFB064B00221A70FB
:100D9C0005E0044B01221A701C2000F0E8FF00BF94
:100DAC0080BD00BFAD000020A40000200008014061
:100DBC000010014080B400AF72B600BFFEE7000027
:100DCC0080B485B000AF154B9B69144A43F0010306
:100DDC009361124B9B6903F00103BB60BB680F4B23
:100DEC00DB690E4A43F08053D3610C4BDB6903F093
:100DFC0080537B607B680A4B5B68FB60FB6823F06D
:100E0C00E063FB60FB6843F00073FB60044AFB6823
:100E1C00536000BF1437BD4680BC704700100240C1
:100E2C000000014080B400AFFEE780B400AFFEE7E5
:100E3C0080B400AFFEE780B400AFFEE780B400AF33
:100E4C00FEE780B400AF00BFBD4680BC704780B4E5
:100E5C0000AF00BFBD4680BC704780B400AF00BF80
:100E6C00BD4680BC704780B500AF00F089F900BF6B
:100E7C0080BD80B500AF022001F02CFB00BF80BD0F
:100E8C0080B500AF024801F055F800BF80BD00BF2F
:100E9C005C00002080B500AF024800F067FB00BF8B
:100EAC0080BD00BF2C00002080B500AF024802F0CE
:100EBC0069F800BF80BD00BFB000002080B500AF56
:100ECC00024802F05FF800BF80BD00BFF8000020B0
:100EDC0080B500AF4FF4806001F0FCFA4FF4006075
:100EEC0001F0F8FA00BF80BD80B400AF00BFBD4672
:100EFC0080BC704780B586B000AF07F108030022B4
:100F0C001A605A609A60DA603B4600221A605A6096
:100F1C001D4B4FF080421A601B4B4FF4E1525A604C
:100F2C00194B00229A60184B6422DA60164B00228F
:100F3C001A61154B00229A61134801F081FF034698
:100F4C00002B01D0FFF736FF4FF48053BB6007F145
:100F5C00080319460C4802F01DF90346002B01D07A
:100F6C00FFF728FF00233B6000237B603B461946BC
:100F7C00054802F0EFFA0346002B01D0FFF71AFFE9
:100F8C0000BF1837BD4680BDB000002080B586B0CC
:100F9C0000AF07F1080300221A605A609A60DA6009
:100FAC003B4600221A605A601D4B1E4A1A601C4BAD
:100FBC004FF4E1525A601A4B00229A60184B4FF4CE
:100FCC007A72DA60164B00221A61154B00229A6174
:100FDC00134801F035FF0346002B01D0FFF7EAFE62
:100FEC004FF48053BB6007F1080319460C4802F01C
:100FFC00D1F80346002B01D0FFF7DCFE20233B6029
:10100C0000237B603B461946054802F0A3FA0346D1
:10101C00002B01D0FFF7CEFE00BF1837BD4680BDB8
:10102C00F80000200004004080B584B000AF786068
:10103C007B681B68B3F1804F14D1194BDB69184ADC
:10104C0043F00103D361164BDB6903F00103FB6032
:10105C00FB68002200211C2000F06DFE1C2000F01B
:10106C0086FE18E07B681B680E4A934213D10C4B2A
:10107C00DB690B4A43F00203D361094BDB6903F0D4
:10108C000203BB60BB68002200211D2000F053FE50
:10109C001D2000F06CFE00BF1037BD4680BD00BFA8
:1010AC0000100240000400400C480D490D4A00237A
:1010BC0002E0D458C4500433C4188C42F9D30A4A01
:1010CC000A4C002301E013600432A242FBD3FFF769
:1010DC000BFF02F0AFFAFFF7D7FB704700000020C0
:1010EC0010000020D8360008100000204401002019
:1010FC00FEE7000080B500AF084B1B68074A43F0C1
:10110C0010031360032000F00BFE0F2000F008F812
:10111C00FFF756FE0023184680BD00BF002002409A
:10112C0080B582B000AF7860124B1A68124B1B78F6
:10113C0019464FF47A73B3FBF1F3B2FBF3F3184691
:10114C0000F031FE0346002B01D001230EE07B683A
:10115C000F2B0AD8002279684FF0FF3000F0EBFD1E
:10116C00064A7B681360002300E001231846083709
:10117C00BD4680BD040000200C00002008000020AB
:10118C0080B400AF054B1B781A46054B1B68134403
:10119C00034A136000BFBD4680BC70470C000020A2
:1011AC004001002080B400AF024B1B681846BD46BE
:1011BC0080BC70474001002080B584B000AF7860DF
:1011CC00FFF7F0FFB8607B68FB60FB68B3F1FF3F93
:1011DC0005D00A4B1B781A46FB681344FB6000BF12
:1011EC00FFF7E0FF0246BB68D31AFA689A42F7D8B9
:1011FC0000BF00BF1037BD4680BD00BF0C000020F3
:10120C0080B586B000AF78600023FB7500233B618E
:10121C000023BB600023FB607B68002B01D1012302
:10122C00BEE07B689B68002B7B689B6A002B09D116
:10123C007B680022DA627B68002283F824207868BD
:10124C00FFF7F0F9786800F0CBFB0346FB757B6881
:10125C009B6A03F01003002B40F09980FB7D002B60
:10126C0040F095807B689B6A23F4885323F002033B
:10127C0043F002027B689A627B685A687B68DB6980
:10128C001A437B681B7B5B001343BA681343BB6038
:10129C007B689B68B3F5807F03D07B689B68012BD0
:1012AC0002D14FF4807300E000233A6913433B6191
:1012BC007B681B7D012B19D17B681B7B002B09D113
:1012CC007B689B69013B5A033B69134343F40063FE
:1012DC003B610BE07B689B6A43F020027B689A625F
:1012EC007B68DB6A43F001027B68DA627B681B680F
:1012FC005B6823F469417B681B683A690A435A604E
:10130C007B681B689A68284B13407A681268B96826
:10131C000B4393607B689B68B3F5807F03D07B683D
:10132C009B68012B04D17B681B69013B1B05FB608F
:10133C007B681B68DB6A23F470017B681B68FA68A6
:10134C000A43DA627B681B689A68184B1340BA68C8
:10135C009A420BD17B680022DA627B689B6A23F08D
:10136C00030343F001027B689A6218E07B689B6A76
:10137C0023F0120343F010027B689A627B68DB6AED
:10138C0043F001027B68DA620123FB7507E07B689E
:10139C009B6A43F010027B689A620123FB75FB7D0C
:1013AC0018461837BD4680BDFDF7E1FFFE0E1FFF46
:1013BC0080B586B000AFF860B9607A600023FB7529
:1013CC00FB681B68644A934204D0FB681B68634A41
:1013DC00934206D1604B5B6803F47023002B40F002
:1013EC00B380FB6893F82430012B01D10223AEE0CB
:1013FC00FB68012283F82420F86800F097FA034672
:10140C00FB75FB7D002B40F09A80FB689B6A23F4F4
:10141C00706323F0010343F48072FB689A62FB68EB
:10142C001B684E4A934205D14B4B5B6803F4702307
:10143C00002B15D1FB689B6A23F48012FB689A621F
:10144C00FB681B685B6803F48063002B26D0FB6889
:10145C009B6A23F4405343F48052FB689A621DE06C
:10146C00FB689B6A43F48012FB689A62FB681B68FA
:10147C00394A934204D0FB681B68384A93420DD119
:10148C00354B5B6803F48063002B07D0FB689B6AC9
:10149C0023F4405343F48052FB689A62FB689B6AC6
:1014AC0003F48053002B06D0FB68DB6A23F00602A2
:1014BC00FB68DA6202E0FB680022DA62FB68002259
:1014CC0083F82420FB681B6A254A9A62FB681B6A16
:1014DC00244ADA62FB681B6A234A1A63FB681B689E
:1014EC006FF002021A60FB681B689A68FB681B6845
:1014FC0042F480729A60FB68186AFB681B684C3374
:10150C001946BA687B6800F0B5FCFB681B689B68E1
:10151C0003F46023B3F5602F08D1FB681B689A684D
:10152C00FB681B6842F4A0029A600FE0FB681B6822
:10153C009A68FB681B6842F480129A6006E0FB68AC
:10154C00002283F8242001E00123FB75FB7D184663
:10155C001837BD4680BD00BF002401400028014063
:10156C006F1A0008EB1A0008071B000880B582B040
:10157C0000AF78607B681B685B6803F02003202B4E
:10158C0040D17B681B681B6803F00203022B39D126
:10159C007B689B6A03F01003002B05D17B689B6A68
:1015AC0043F400727B689A627B681B689B6803F447
:1015BC006023B3F5602F1DD17B681B7B002B19D1E9
:1015CC007B681B685A687B681B6822F020025A6093
:1015DC007B689B6A23F480727B689A627B689B6A47
:1015EC0003F48053002B05D17B689B6A43F0010206
:1015FC007B689A62786800F07CF87B681B686FF0F7
:10160C0012021A607B681B685B6803F08003802BF6
:10161C004FD17B681B681B6803F00403042B48D173
:10162C007B689B6A03F01003002B05D17B689B6AD7
:10163C0043F400527B689A627B681B689B6803F4D6
:10164C00E043B3F5E04F12D07B681B685B6803F492
:10165C008063002B25D17B681B689B6803F4602397
:10166C00B3F5602F1DD17B681B7B002B19D17B68D8
:10167C001B685A687B681B6822F080025A607B6882
:10168C009B6A23F480527B689A627B689B6A03F4A2
:10169C008073002B05D17B689B6A43F001027B6849
:1016AC009A62786800F043FA7B681B686FF00C0252
:1016BC001A607B681B685B6803F04003402B14D1F5
:1016CC007B681B681B6803F00103012B0DD17B6841
:1016DC009B6A43F480327B689A62786800F01BF84E
:1016EC007B681B686FF001021A6000BF0837BD46AB
:1016FC0080BD80B483B000AF786000BF0C37BD46AE
:10170C0080BC704780B483B000AF786000BF0C37EA
:10171C00BD4680BC704780B483B000AF786000BF1A
:10172C000C37BD4680BC704780B483B000AF786086
:10173C0000BF0C37BD4680BC7047000080B485B03C
:10174C0000AF786039600023FB730023BB607B68BB
:10175C0093F82430012B01D10223DCE07B680122B9
:10176C0083F824203B685B68062B1CD87B681B68BD
:10177C00596B3B685A6813469B001344053B1F2268
:10178C0002FA03F3DB4319403B6818683B685A685C
:10179C0013469B001344053B00FA03F27B681B685D
:1017AC000A435A633CE03B685B680C2B1CD87B6893
:1017BC001B68196B3B685A6813469B001344233B08
:1017CC001F2202FA03F3DB4319403B6818683B689D
:1017DC005A6813469B001344233B00FA03F27B68C0
:1017EC001B680A431A631BE07B681B68D96A3B6859
:1017FC005A6813469B001344413B1F2202FA03F321
:10180C00DB4319403B6818683B685A6813469B00D9
:10181C001344413B00FA03F27B681B680A43DA620B
:10182C003B681B68092B1CD97B681B68D9683B6813
:10183C001A6813465B0013441E3B072202FA03F39B
:10184C00DB4319403B6898683B681A6813465B0099
:10185C0013441E3B00FA03F27B681B680A43DA60F0
:10186C0019E07B681B6819693B681A6813465B00B2
:10187C001344072202FA03F3DB4319403B689868D0
:10188C003B681A6813465B00134400FA03F27B684A
:10189C001B680A431A613B681B68102B03D03B681A
:1018AC001B68112B32D17B681B681D4A934225D1D2
:1018BC007B681B689B6803F40003002B26D17B68B4
:1018CC001B689A687B681B6842F400029A603B684C
:1018DC001B68102B1AD1134B1B68134AA2FB032352
:1018EC009A0C13469B0013445B00BB6002E0BB6880
:1018FC00013BBB60BB68002BF9D107E07B689B6A9E
:10190C0043F020027B689A620123FB737B68002200
:10191C0083F82420FB7B18461437BD4680BC7047E7
:10192C00002401400400002083DE1B4380B584B0FA
:10193C0000AF78600023FB600023BB607B681B68F2
:10194C009B6803F00103012B40D07B681B689A68ED
:10195C007B681B6842F001029A601F4B1B681F4A90
:10196C00A2FB03239B0CBB6002E0BB68013BBB608A
:10197C00BB68002BF9D1FFF715FCF8601FE0FFF7EF
:10198C0011FC0246FB68D31A022B18D97B681B6822
:10199C009B6803F00103012B11D07B689B6A43F019
:1019AC0010027B689A627B68DB6A43F001027B68F9
:1019BC00DA627B68002283F82420012307E07B682D
:1019CC001B689B6803F00103012BD8D10023184638
:1019DC001037BD4680BD00BF0400002083DE1B43D2
:1019EC0080B584B000AF78600023FB607B681B6817
:1019FC009B6803F00103012B2ED17B681B689A684E
:101A0C007B681B6822F001029A60FFF7CBFBF86041
:101A1C001BE0FFF7C7FB0246FB68D31A022B14D955
:101A2C007B681B689B6803F00103012B0DD17B685D
:101A3C009B6A43F010027B689A627B68DB6A43F016
:101A4C0001027B68DA62012307E07B681B689B68F4
:101A5C0003F00103012BDCD0002318461037BD46E0
:101A6C0080BD80B584B000AF78607B685B6AFB603A
:101A7C00FB689B6A03F05003002B27D1FB689B6A21
:101A8C0043F40072FB689A62FB681B689B6803F462
:101A9C006023B3F5602F15D1FB681B7B002B11D194
:101AAC00FB689B6A23F48072FB689A62FB689B6AF2
:101ABC0003F48053002B05D1FB689B6A43F00102B1
:101ACC00FB689A62F868FFF714FE04E0FB681B6A77
:101ADC001B6B7868984700BF1037BD4680BD80B53A
:101AEC0084B000AF78607B685B6AFB60F868FFF7D6
:101AFC0009FE00BF1037BD4680BD80B584B000AF75
:101B0C0078607B685B6AFB60FB689B6A43F0400211
:101B1C00FB689A62FB68DB6A43F00402FB68DA62DA
:101B2C00F868FFF701FE00BF1037BD4680BD80B4DA
:101B3C0083B000AF786000BF0C37BD4680BC7047E7
:101B4C0080B485B000AF78607B6803F00703FB605E
:101B5C000C4BDB68BB60BA684FF6FF031340BB60ED
:101B6C00FB681A02BB68134343F0BF6343F40033B2
:101B7C00BB60044ABB68D36000BF1437BD4680BC51
:101B8C00704700BF00ED00E080B400AF044BDB6891
:101B9C001B0A03F007031846BD4680BC704700BF04
:101BAC0000ED00E080B483B000AF0346FB7197F901
:101BBC000730002B0BDBFB7903F01F02064997F96A
:101BCC0007305B09012000FA02F241F8232000BF24
:101BDC000C37BD4680BC704700E100E080B483B098
:101BEC0000AF0346FB7197F90730002B12DBFB7932
:101BFC0003F01F020A4997F907305B09012000FA2C
:101C0C0002F2203341F82320BFF34F8F00BFBFF304
:101C1C006F8F00BF00BF0C37BD4680BC704700BF44
:101C2C0000E100E080B483B000AF03463960FB7183
:101C3C0097F90730002B0ADB3B68DAB20C4997F9AD
:101C4C0007301201D2B20B4483F800230AE03B6840
:101C5C00DAB20849FB7903F00F03043B1201D2B24C
:101C6C000B441A7600BF0C37BD4680BC704700BFD2
:101C7C0000E100E000ED00E080B489B000AFF86056
:101C8C00B9607A60FB6803F00703FB61FB69C3F181
:101C9C000703042B28BF0423BB61FB690433062B09
:101CAC0002D9FB69033B00E000237B614FF0FF325C
:101CBC00BB6902FA03F3DA43BB681A407B699A40AA
:101CCC004FF0FF317B6901FA03F3D9437B680B407A
:101CDC00134318462437BD4680BC704780B582B08C
:101CEC0000AF78607B68013BB3F1807F01D30123A7
:101CFC000FE00A4A7B68013B53600F214FF0FF3025
:101D0C00FFF790FF054B00229A60044B07221A60E4
:101D1C00002318460837BD4680BD00BF10E000E028
:101D2C0080B582B000AF78607868FFF709FF00BF1C
:101D3C000837BD4680BD80B586B000AF0346B9609C
:101D4C007A60FB7300237B61FFF71EFF78617A6872
:101D5C00B9687869FFF790FF024697F90F30114682
:101D6C001846FFF75FFF00BF1837BD4680BD80B532
:101D7C0082B000AF0346FB7197F907301846FFF7A6
:101D8C0011FF00BF0837BD4680BD80B582B000AFE3
:101D9C000346FB7197F907301846FFF71FFF00BF8A
:101DAC000837BD4680BD80B582B000AF78607868DA
:101DBC00FFF794FF034618460837BD4680BD000068
:101DCC0080B485B000AF78600023FB607B68002B8B
:101DDC0001D1012343E07B681B681A46224B134454
:101DEC00224AA2FB03231B099A007B681A647B68B6
:101DFC001F4ADA637B68022283F821207B681B6808
:101E0C001B68FB60FB6823F47F5323F03003FB60FB
:101E1C007B685A687B689B681A437B68DB681A434B
:101E2C007B681B691A437B685B691A437B689B69F7
:101E3C001A437B68DB691343FA681343FB607B68C6
:101E4C001B68FA681A607B6800229A637B6801221F
:101E5C0083F821207B68002283F820200023184679
:101E6C001437BD4680BC7047F8FFFDBFCDCCCCCC41
:101E7C000000024080B586B000AFF860B9607A60AF
:101E8C003B600023FB75FB6893F82030012B01D1DC
:101E9C0002234AE0FB68012283F82020FB6893F8B8
:101EAC002130012B3AD1FB68022283F82120FB68F8
:101EBC0000229A63FB681B681A68FB681B6822F097
:101ECC0001021A603B687A68B968F86800F038F962
:101EDC00FB68DB6A002B08D0FB681B681A68FB6880
:101EEC001B6842F00E021A600FE0FB681B681A6850
:101EFC00FB681B6822F004021A60FB681B681A68F6
:101F0C00FB681B6842F00A021A60FB681B681A68BF
:101F1C00FB681B6842F001021A6005E0FB680022B6
:101F2C0083F820200223FB75FB7D18461837BD462D
:101F3C0080BD000080B584B000AF78607B68DB6B3F
:101F4C001B68FB607B681B681B68BB607B681B6C39
:101F5C0004229A40FB681340002B4FD0BB6803F05F
:101F6C000403002B4AD07B681B681B6803F020031A
:101F7C00002B07D17B681B681A687B681B6822F0F2
:101F8C0004021A607B681B68664A934229D07B68FE
:101F9C001B68654A934222D07B681B68634A934254
:101FAC001AD07B681B68624A934212D07B681B680C
:101FBC00604A93420AD07B681B685F4A934202D105
:101FCC004FF480030EE04FF080630BE04FF480235E
:101FDC0008E04FF4804305E04FF4806302E04023B7
:101FEC0000E00423554A53607B68DB6A002B00F049
:101FFC0094807B68DB6A786898478EE07B681B6C02
:10200C0002229A40FB681340002B56D0BB6803F0A9
:10201C000203002B51D07B681B681B6803F0200364
:10202C00002B0BD17B681B681A687B681B6822F03D
:10203C000A021A607B68012283F821207B681B68E6
:10204C00384A934229D07B681B68374A934222D086
:10205C007B681B68354A93421AD07B681B68344AEC
:10206C00934212D07B681B68324A93420AD07B6839
:10207C001B68314A934202D14FF400130EE04FF02B
:10208C0000730BE04FF4003308E04FF4005305E00D
:10209C004FF4007302E0202300E00223274A536030
:1020AC007B68002283F820207B689B6A002B34D04D
:1020BC007B689B6A786898472FE07B681B6C0822CA
:1020CC009A40FB681340002B28D0BB6803F0080330
:1020DC00002B23D07B681B681A687B681B6822F076
:1020EC000E021A607B681A6C7B68DB6B012101FAAB
:1020FC0002F25A607B6801229A637B68012283F8A2
:10210C0021207B68002283F820207B681B6B002B2E
:10211C0004D07B681B6B7868984700BF00BF1037F2
:10212C00BD4680BD080002401C0002403000024049
:10213C0044000240580002406C0002400000024083
:10214C0080B485B000AFF860B9607A603B60FB6822
:10215C001A6CFB68DB6B012101FA02F25A60FB6816
:10216C001B683A685A60FB685B68102B08D1FB68E7
:10217C001B687A689A60FB681B68BA68DA6007E0CB
:10218C00FB681B68BA689A60FB681B687A68DA603F
:10219C0000BF1437BD4680BC7047000080B48BB0C4
:1021AC0000AF7860396000237B6200233B6269E1F9
:1021BC0001227B6A02FA03F3FB613B681B68FA6934
:1021CC001340BB61BA69FB699A4240F058813B6885
:1021DC005B689A4A93425ED0984A934275D8984A63
:1021EC00934258D0964A93426FD8964A934252D013
:1021FC00944A934269D8944A93424CD0924A93425F
:10220C0063D8924A934246D0904A93425DD8122B9F
:10221C002AD8122B59D801A252F823F0A322000875
:10222C007D2200088F220008D1220008D722000846
:10223C00D7220008D7220008D7220008D72200088E
:10224C00D7220008D7220008D7220008D72200087E
:10225C00D7220008D7220008D7220008D72200086E
:10226C008522000899220008794A934213D02CE069
:10227C003B68DB683B6229E03B68DB6804333B620C
:10228C0024E03B68DB6808333B621FE03B68DB689B
:10229C000C333B621AE03B689B68002B02D1042391
:1022AC003B6213E03B689B68012B05D108233B6222
:1022BC007B68FA691A6109E008233B627B68FA695A
:1022CC005A6103E000233B6200E000BFBB69FF2BB7
:1022DC0001D87B6801E07B6804337B61BB69FF2B11
:1022EC0002D87B6A9B0002E07B6A083B9B003B6147
:1022FC007B691A680F213B6901FA03F3DB431A402F
:10230C00396A3B6901FA03F31A437B691A603B682B
:10231C005B6803F08053002B00F0B1804D4B9B6940
:10232C004C4A43F0010393614A4B9B6903F0010350
:10233C00BB60BB68484A7B6A9B08023352F8233067
:10234C00FB607B6A03F003039B000F2202FA03F38A
:10235C00DB43FA681340FB607B68404A934213D01E
:10236C007B683F4A93420DD07B683E4A934207D02C
:10237C007B683D4A934201D1032306E0042304E029
:10238C00022302E0012300E000237A6A02F0030238
:10239C0092009340FA681343FB602F497B6A9B08B9
:1023AC000233FA6841F823203B685B6803F48033FE
:1023BC00002B06D02D4B1A682C49BB6913430B60BC
:1023CC0006E02A4B1A68BB69DB43284913400B60B3
:1023DC003B685B6803F40033002B06D0234B5A6830
:1023EC002249BB6913434B6006E0204B5A68BB691A
:1023FC00DB431E4913404B603B685B6803F480135E
:10240C00002B06D0194B9A681849BB6913438B6093
:10241C0006E0164B9A68BB69DB43144913408B608A
:10242C003B685B6803F40013002B21D00F4BDA6878
:10243C000E49BB691343CB6021E000BF0000321092
:10244C0000003110000022100000211000001210BA
:10245C000000111000100240000001400008014073
:10246C00000C014000100140001401400004014028
:10247C000B4BDA68BB69DB4309491340CB607B6AC1
:10248C0001337B623B681A687B6A22FA03F3002BE8
:10249C007FF48EAE00BF00BF2C37BD4680BC7047AA
:1024AC000004014080B483B000AF78600B467B80A1
:1024BC0013467B707B78002B03D07A887B681A617B
:1024CC0003E07B881A047B681A6100BF0C37BD4699
:1024DC0080BC704780B582B000AF0346FB80084BD0
:1024EC005A69FB881340002B06D0054AFB885361C0
:1024FC00FB881846FEF790FB00BF0837BD4680BD31
:10250C000004014080B586B000AF78607B68002B7A
:10251C0001D1012372E27B681B6803F00103002BDD
:10252C0000F08780924B5B6803F00C03042B0CD0FB
:10253C008F4B5B6803F00C03082B12D18C4B5B6840
:10254C0003F48033B3F5803F0BD1894B1B6803F444
:10255C000033002B6CD07B685B68002B68D10123A7
:10256C004CE27B685B68B3F5803F06D1804B1B68FF
:10257C007F4A43F4803313602EE07B685B68002B4A
:10258C000CD17B4B1B687A4A23F480331360784B55
:10259C001B68774A23F4802313601DE07B685B681B
:1025AC00B3F5A02F0CD1724B1B68714A43F48023F6
:1025BC0013606F4B1B686E4A43F4803313600BE05F
:1025CC006B4B1B686A4A23F480331360684B1B689F
:1025DC00674A23F4802313607B685B68002B13D05D
:1025EC00FEF7E0FD386108E0FEF7DCFD02463B69D2
:1025FC00D31A642B01D9032300E25D4B1B6803F44F
:10260C000033002BF0D014E0FEF7CCFD386108E06D
:10261C00FEF7C8FD02463B69D31A642B01D903238C
:10262C00ECE1534B1B6803F40033002BF0D100E0BA
:10263C0000BF7B681B6803F00203002B63D04C4B7C
:10264C005B6803F00C03002B0BD0494B5B6803F069
:10265C000C03082B1CD1464B5B6803F48033002B16
:10266C0016D1434B1B6803F00203002B05D07B688B
:10267C001B69012B01D00123C0E13D4B1B6823F0EA
:10268C00F8027B685B69DB00394913430B603AE065
:10269C007B681B69002B20D0364B01221A60FEF799
:1026AC0081FD386108E0FEF77DFD02463B69D31AD7
:1026BC00022B01D90323A1E12D4B1B6803F002036C
:1026CC00002BF0D02A4B1B6823F0F8027B685B6967
:1026DC00DB00274913430B6015E0264B00221A60E0
:1026EC00FEF760FD386108E0FEF75CFD02463B69D1
:1026FC00D31A022B01D9032380E11D4B1B6803F075
:10270C000203002BF0D17B681B6803F00803002B3D
:10271C003AD07B689B69002B19D0174B01221A60A9
:10272C00FEF740FD386108E0FEF73CFD02463B69D0
:10273C00D31A022B01D9032360E10D4B5B6A03F022
:10274C000203002BF0D0012000F0A6FA1CE00A4B8B
:10275C0000221A60FEF726FD38610FE0FEF722FD1D
:10276C0002463B69D31A022B08D9032346E100BF6A
:10277C00001002400000424280044242924B5B6ACD
:10278C0003F00203002BE9D17B681B6803F0040300
:10279C00002B00F0A6800023FB758B4BDB6903F04C
:1027AC008053002B0DD1884BDB69874A43F0805353
:1027BC00D361854BDB6903F08053BB60BB6801239D
:1027CC00FB75824B1B6803F48073002B18D17F4B75
:1027DC001B687E4A43F480731360FEF7E3FC386198
:1027EC0008E0FEF7DFFC02463B69D31A642B01D9E3
:1027FC00032303E1754B1B6803F48073002BF0D0AB
:10280C007B68DB68012B06D16F4B1B6A6E4A43F069
:10281C00010313622DE07B68DB68002B0CD16A4B43
:10282C001B6A694A23F001031362674B1B6A664AF1
:10283C0023F0040313621CE07B68DB68052B0CD1CE
:10284C00614B1B6A604A43F0040313625E4B1B6AC4
:10285C005D4A43F0010313620BE05B4B1B6A5A4A5F
:10286C0023F001031362584B1B6A574A23F00403ED
:10287C0013627B68DB68002B15D0FEF793FC386184
:10288C000AE0FEF78FFC02463B69D31A41F288320C
:10289C00934201D90323B1E04B4B1B6A03F00203B3
:1028AC00002BEED014E0FEF77DFC38610AE0FEF759
:1028BC0079FC02463B69D31A41F28832934201D922
:1028CC0003239BE0404B1B6A03F00203002BEED169
:1028DC00FB7D012B05D13C4BDB693B4A23F080533C
:1028EC00D3617B68DB69002B00F08780364B5B681B
:1028FC0003F00C03082B61D07B68DB69022B46D1FB
:10290C00334B00221A60FEF74DFC386108E0FEF7ED
:10291C0049FC02463B69D31A022B01D903236DE013
:10292C00294B1B6803F00073002BF0D17B681B6AEA
:10293C00B3F5803F08D1244B5B6823F400327B68ED
:10294C009B68214913434B601F4B5B6823F4741243
:10295C007B68196A7B685B6A0B431B4913434B60AA
:10296C001B4B01221A60FEF71DFC386108E0FEF7D4
:10297C0019FC02463B69D31A022B01D903233DE013
:10298C00114B1B6803F00073002BF0D035E0104B9B
:10299C0000221A60FEF706FC386108E0FEF702FC24
:1029AC0002463B69D31A022B01D9032326E0064BBE
:1029BC001B6803F00073002BF0D11EE07B68DB6911
:1029CC00012B07D1012319E00010024000700040D8
:1029DC00600042420B4B5B68FB60FB6803F4803287
:1029EC007B681B6A9A4206D1FB6803F470127B6801
:1029FC005B6A9A4201D0012300E000231846183785
:102A0C00BD4680BD0010024080B584B000AF786038
:102A1C0039607B68002B01D10123D0E06A4B1B6825
:102A2C0003F007033A689A4210D9674B1B6823F0EE
:102A3C00070265493B6813430B60634B1B6803F04B
:102A4C0007033A689A4201D00123B8E07B681B68FF
:102A5C0003F00203002B20D07B681B6803F00403F7
:102A6C00002B05D0594B5B68584A43F4E063536024
:102A7C007B681B6803F00803002B05D0534B5B6885
:102A8C00524A43F460535360504B5B6823F0F0029E
:102A9C007B689B684D4913434B607B681B6803F054
:102AAC000103002B40D07B685B68012B07D1474B9F
:102ABC001B6803F40033002B15D101237FE07B68E6
:102ACC005B68022B07D1414B1B6803F00073002B92
:102ADC0009D1012373E03D4B1B6803F00203002B6B
:102AEC0001D101236BE0394B5B6823F003027B6857
:102AFC005B68364913434B60FEF754FBF8600AE001
:102B0C00FEF750FB0246FB68D31A41F2883293421F
:102B1C0001D9032353E02D4B5B6803F00C027B6857
:102B2C005B689B009A42EBD1274B1B6803F00703B1
:102B3C003A689A4210D2244B1B6823F007022249B0
:102B4C003B6813430B60204B1B6803F007033A6888
:102B5C009A4201D0012332E07B681B6803F0040326
:102B6C00002B08D0194B5B6823F4E0627B68DB68B0
:102B7C00164913434B607B681B6803F00803002B5A
:102B8C0009D0124B5B6823F460527B681B69DB0035
:102B9C000E4913434B6000F021F802460B4B5B6867
:102BAC001B0903F00F030A49CB5C22FA03F3094A11
:102BBC001360094B1B681846FEF7B2FA002318463F
:102BCC001037BD4680BD00BF0020024000100240FF
:102BDC00C0360008040000200800002090B48AB021
:102BEC0000AF294B3C1D0FCB84E80F0040F20123B2
:102BFC003B800023FB610023BB6100237B6200232D
:102C0C007B6100233B62214B5B68FB61FB6903F03A
:102C1C000C03042B02D0082B03D02BE01C4B3B6283
:102C2C002BE0FB699B0C03F00F0328333B4413F898
:102C3C00243C7B61FB6903F48033002B12D0134BD3
:102C4C005B685B0C03F0010328333B4413F8283C0E
:102C5C00BB617B690E4A03FB02F2BB69B2FBF3F367
:102C6C007B6204E07B690B4A02FB03F37B627B6AA9
:102C7C003B6202E0064B3B6200BF3B6A18462837BA
:102C8C00BD4690BC704700BFB03600080010024033
:102C9C0000127A0000093D0080B485B000AF786066
:102CAC000A4B1B680A4AA2FB03235B0A7A6802FBE5
:102CBC0003F3FB6000BFFB685A1EFA60002BF9D1CE
:102CCC0000BF00BF1437BD4680BC70470400002015
:102CDC00D34D621080B586B000AF786000233B61A5
:102CEC000023FB607B681B6803F00103002B7DD085
:102CFC000023FB754F4BDB6903F08053002B0DD188
:102D0C004C4BDB694B4A43F08053D361494BDB6935
:102D1C0003F08053BB60BB680123FB75464B1B68FB
:102D2C0003F48073002B18D1434B1B68424A43F4C5
:102D3C0080731360FEF736FA386108E0FEF732FA5A
:102D4C0002463B69D31A642B01D903236DE03A4B3D
:102D5C001B6803F48073002BF0D0364B1B6A03F412
:102D6C004073FB60FB68002B2ED07B685B6803F420
:102D7C004073FA689A4227D02E4B1B6A23F4407397
:102D8C00FB602E4B01221A602C4B00221A60294A40
:102D9C00FB681362FB6803F00103002B14D0FEF7F1
:102DAC0001FA38610AE0FEF7FDF902463B69D31AD5
:102DBC0041F28832934201D9032336E01D4B1B6A42
:102DCC0003F00203002BEED01A4B1B6A23F4407263
:102DDC007B685B68174913430B62FB7D012B05D1A4
:102DEC00144BDB69134A23F08053D3617B681B6857
:102DFC0003F00203002B08D00E4B5B6823F4404217
:102E0C007B689B680B4913434B607B681B6803F022
:102E1C001003002B08D0074B5B6823F480027B68FF
:102E2C00DB68044913434B60002318461837BD4632
:102E3C0080BD00BF001002400070004040044242C0
:102E4C0080B582B000AF78607B68002B01D1012384
:102E5C0041E07B6893F83D30DBB2002B06D17B68F8
:102E6C00002283F83C207868FEF7DEF87B680222AB
:102E7C0083F83D207B681A687B680433194610463A
:102E8C0000F070FA7B68012283F846207B680122EF
:102E9C0083F83E207B68012283F83F207B68012267
:102EAC0083F840207B68012283F841207B68012253
:102EBC0083F842207B68012283F843207B6801223F
:102ECC0083F844207B68012283F845207B6801222B
:102EDC0083F83D20002318460837BD4680BD00000E
:102EEC0080B485B000AF78607B6893F83D30DBB27E
:102EFC00012B01D001233AE07B68022283F83D20AC
:102F0C007B681B68DA687B681B6842F00102DA6038
:102F1C007B681B68184A93420ED07B681B68B3F120
:102F2C00804F09D07B681B68144A934204D07B689D
:102F3C001B68134A934211D17B681B689B6803F092
:102F4C000703FB60FB68062B10D07B681B681A68B4
:102F5C007B681B6842F001021A6007E07B681B6803
:102F6C001A687B681B6842F001021A60002318463D
:102F7C001437BD4680BC7047002C01400004004053
:102F8C000008004080B582B000AF78607B681B6899
:102F9C001B6903F00203022B22D17B681B68DB68E0
:102FAC0003F00203022B1BD17B681B686FF002023B
:102FBC001A617B6801221A777B681B689B6903F096
:102FCC000303002B03D0786800F0B1F905E07868B2
:102FDC0000F0A4F9786800F0B3F97B6800221A7746
:102FEC007B681B681B6903F00403042B22D17B68EC
:102FFC001B68DB6803F00403042B1BD17B681B6884
:10300C006FF004021A617B6802221A777B681B68D6
:10301C009B6903F44073002B03D0786800F087F9A8
:10302C0005E0786800F07AF9786800F089F97B6837
:10303C0000221A777B681B681B6903F00803082BB6
:10304C0022D17B681B68DB6803F00803082B1BD1BB
:10305C007B681B686FF008021A617B6804221A7780
:10306C007B681B68DB6903F00303002B03D07868D3
:10307C0000F05DF905E0786800F050F9786800F030
:10308C005FF97B6800221A777B681B681B6903F069
:10309C001003102B22D17B681B68DB6803F0100334
:1030AC00102B1BD17B681B686FF010021A617B68B8
:1030BC0008221A777B681B68DB6903F44073002BCA
:1030CC0003D0786800F033F905E0786800F026F951
:1030DC00786800F035F97B6800221A777B681B68EA
:1030EC001B6903F00103012B0ED17B681B68DB68A5
:1030FC0003F00103012B07D17B681B686FF0010201
:10310C001A617868FDF712FD7B681B681B6903F078
:10311C008003802B0ED17B681B68DB6803F0800377
:10312C00802B07D17B681B686FF080021A6178686E
:10313C0000F077FA7B681B681B6903F04003402B97
:10314C000ED17B681B68DB6803F04003402B07D172
:10315C007B681B686FF040021A61786800F0F9F820
:10316C007B681B681B6903F02003202B0ED17B6846
:10317C001B68DB6803F02003202B07D17B681B68DE
:10318C006FF020021A61786800F042FA00BF08372D
:10319C00BD4680BD80B584B000AF786039607B6877
:1031AC0093F83C30012B01D10223B3E07B68012260
:1031BC0083F83C207B68022283F83D207B681B68E7
:1031CC009B68FB60FB6823F07703FB60FB6823F4D0
:1031DC007F43FB607B681B68FA689A603B681B68DE
:1031EC00B3F5005F3ED0B3F5005F00F28780B3F516
:1031FC00805F00F08580B3F5805F7FD8702B1AD08C
:10320C00702B7BD8602B50D0602B77D8502B3CD0B8
:10321C00502B73D8402B58D0402B6FD8302B64D008
:10322C00302B6BD8202B60D0202B67D8002B5CD098
:10323C00102B5AD062E07B6818683B6899683B6831
:10324C005A683B68DB6800F066F97B681B689B6812
:10325C00FB60FB6843F07703FB607B681B68FA68D4
:10326C009A604EE07B6818683B6899683B685A68BE
:10327C003B68DB6800F04FF97B681B689A687B68D9
:10328C001B6842F480429A603BE07B6818683B689C
:10329C0059683B68DB681A4600F0C6F87B681B6807
:1032AC005021184600F01DF92BE07B6818683B682C
:1032BC0059683B68DB681A4600F0E4F87B681B68C9
:1032CC006021184600F00DF91BE07B6818683B681C
:1032DC0059683B68DB681A4600F0A6F87B681B68E7
:1032EC004021184600F0FDF80BE07B681A683B683B
:1032FC001B681946104600F0F4F802E000BF00E02D
:10330C0000BF7B68012283F83D207B68002283F894
:10331C003C20002318461037BD4680BD80B483B0D6
:10332C0000AF786000BF0C37BD4680BC704780B4DE
:10333C0083B000AF786000BF0C37BD4680BC7047CF
:10334C0080B483B000AF786000BF0C37BD4680BC42
:10335C00704780B483B000AF786000BF0C37BD46B7
:10336C0080BC704780B485B000AF786039607B68F2
:10337C001B68FB607B68294A93420BD07B68B3F1D6
:10338C00804F07D07B68264A934203D07B68254A3E
:10339C00934208D1FB6823F07003FB603B685B68C9
:1033AC00FA681343FB607B681C4A93420BD07B6822
:1033BC00B3F1804F07D07B68194A934203D07B68E6
:1033CC00184A934208D1FB6823F44073FB603B68B6
:1033DC00DB68FA681343FB60FB6823F080023B68F0
:1033EC005B691343FB607B68FA681A603B689A68F8
:1033FC007B68DA623B681A687B689A627B68074A6A
:10340C00934203D13B681A697B681A637B6801227B
:10341C005A6100BF1437BD4680BC7047002C014078
:10342C00000400400008004080B487B000AFF86092
:10343C00B9607A60FB681B6A7B61FB681B6A23F0CE
:10344C000102FB681A62FB689B693B613B6923F0D4
:10345C00F0033B617B681B013A6913433B617B6959
:10346C0023F00A037B617A69BB6813437B61FB68B9
:10347C003A699A61FB687A691A6200BF1C37BD46CB
:10348C0080BC704780B487B000AFF860B9607A60D8
:10349C00FB681B6A23F01002FB681A62FB689B69CD
:1034AC007B61FB681B6A3B617B6923F470437B6126
:1034BC007B681B037A6913437B613B6923F0A00390
:1034CC003B61BB681B013A6913433B61FB687A693A
:1034DC009A61FB683A691A6200BF1C37BD4680BC12
:1034EC00704780B485B000AF786039607B689B68AA
:1034FC00FB60FB6823F07003FB603A68FB681343C6
:10350C0043F00703FB607B68FA689A6000BF1437CE
:10351C00BD4680BC704780B487B000AFF860B9601E
:10352C007A603B60FB689B687B617B6923F47F431B
:10353C007B613B681A027B681A43BB6813437A6948
:10354C0013437B61FB687A699A6000BF1C37BD46E8
:10355C0080BC704780B485B000AF786039607B6800
:10356C0093F83C30012B01D1022346E07B68012209
:10357C0083F83C207B68022283F83D207B681B6823
:10358C005B68FB607B681B689B68BB60FB6823F017
:10359C007003FB603B681B68FA681343FB607B6835
:1035AC001B68FA685A607B681B68164A93420ED0F7
:1035BC007B681B68B3F1804F09D07B681B68124A8B
:1035CC00934204D07B681B68104A93420CD1BB68B1
:1035DC0023F08003BB603B685B68BA681343BB6035
:1035EC007B681B68BA689A607B68012283F83D206F
:1035FC007B68002283F83C20002318461437BD4614
:10360C0080BC7047002C01400004004000080040C2
:10361C0080B483B000AF786000BF0C37BD4680BC6F
:10362C00704780B483B000AF786000BF0C37BD46E4
:10363C0080BC704770B500260C4D0D4C641BA4105B
:10364C00A64209D100F022F800260A4D0A4C641B50
:10365C00A410A64205D170BD55F8043B984701361D
:10366C00EEE755F8043B98470136F2E7D0360008F0
:10367C00D0360008D0360008D43600080346024481
:10368C00934200D1704703F8011BF9E7F8B500BF6E
:10369C00F8BC08BC9E467047F8B500BFF8BC08BC27
:0436AC009E4670477F
:1036B00002030405060708090A0B0C0D0E0F101073
:1036C00000000000000000000102030406070809D2
:0436D00031010008BC
:0436D4000D010008DC
:1036D8003C0000000024F40010000000010000007D
:04000005080010B52A
:00000001FF
